:020000040800F2
:1000000000280020C51200084D11000853110008F7
:10001000591100085F110008651100080000000078
:100020000000000000000000000000006B1100084C
:100030007711000800000000831100088F110008EC
:100040000D1300080D1300080D1300080D13000810
:100050000D1300080D1300080D1300080D13000800
:100060000D1300080D1300080D1300080D130008F0
:100070000D1300080D1300080D1300080D130008E0
:100080000D1300080D1300080D1300080D130008D0
:100090000D1300080D1300080D1300080D130008C0
:1000A0000D1300080D1300080D1300080D130008B0
:1000B0009D1100080D130008000000000D1300083A
:1000C0000D13000800000000000000000D130008E0
:1000D000000000000D1300080D13000800000000D0
:1000E0000D1300080D1300080D1300080000000098
:1000F0000000000000000000000000000000000000
:0C01000000000000000000005FF808F1A3
:10010C0010B5054C237833B9044B13B10448AFF345
:10011C0000800123237010BD84000020000000002B
:10012C006429000808B5034B1BB103490348AFF31E
:10013C00008008BD00000000880000206429000831
:10014C0080B483B000AF00237B6029E000233B60C8
:10015C0020E018497A6813465B0013443A6813444C
:10016C00012241F82320144A3B68002142F8231055
:10017C00124A3B68002142F82310114A3B68642163
:10018C0042F823100F4A3B68002142F823103B68C9
:10019C0001333B603B68022BDBDD7B6801337B600A
:1001AC007B68032BD2DD00BF00BF0C37BD4680BC83
:1001BC00704700BFEC000020E0000020D4000020BD
:1001CC00BC000020C800002080B483B000AF786071
:1001DC00094A7B6852F82330012B06D1064A7B680A
:1001EC00002142F82310012300E0002318460C37AD
:1001FC00BD4680BC704700BFE000002080B483B0D7
:10020C0000AF7860044A7B68012142F8231000BFDC
:10021C000C37BD4680BC7047E000002080B483B032
:10022C0000AF7860044A7B68012142F8231000BFBC
:10023C000C37BD4680BC7047D400002080B582B01E
:10024C0000AF00237B6083E0464A7B68033352F89F
:10025C00232044497B6841F82320424A7B680633BB
:10026C0052F823203F497B68033341F823203E4A50
:10027C007B6852F823203D497B6831F813301946CE
:10028C00104601F029FB03461946364A7B680633B3
:10029C0042F82310334A7B6852F8232031497B689B
:1002AC00033351F823309A424FD12E4A7B680333E3
:1002BC0052F823202B497B68063351F823309A429D
:1002CC0043D1284A7B68093352F8232025497B689F
:1002DC00063351F823309A4219D0224A7B680633F0
:1002EC0052F823201F497B68093341F823201D4A0B
:1002FC007B68063352F82330002B26D17868FFF741
:10030C007DFF1B4A7B68642142F823101DE0184ACC
:10031C007B6852F823305A1E15497B6841F823201C
:10032C00134A7B6852F82330002B0ED10D4A7B68A0
:10033C00063352F82330002B07D17868FFF76EFF95
:10034C000B4A7B68642142F823107B6801337B6085
:10035C007B68022B7FF778AF00BF00BF0837BD4624
:10036C0080BD00BFEC000020000000208C2900089C
:10037C00BC00002080B500AF01224FF400610B4897
:10038C0001F0C1FA01224FF48051084801F0BBFA88
:10039C0001224FF40051054801F0B5FA01224FF447
:1003AC008041024801F0AFFA00BF80BD0008014057
:1003BC0080B500AF064B1B68184600F031FD0022DB
:1003CC004FF40061034801F09EFA00BF80BD00BFEE
:1003DC00A00000200008014080B500AF064B5B6810
:1003EC00184600F01DFD00224FF48051034801F027
:1003FC008AFA00BF80BD00BFA000002000080140A9
:10040C0080B500AF064B9B68184600F009FD002232
:10041C004FF40051034801F076FA00BF80BD00BFD5
:10042C00A00000200008014080B500AF064BDB683F
:10043C00184600F0F5FC00224FF48041034801F00F
:10044C0062FA00BF80BD00BFA00000200008014080
:10045C0080B500AF012000F0E5FE0346002B41D033
:10046C00214B1B68143B032B2ED801A252F823F00E
:10047C008D0400089F040008B1040008C3040008A0
:10048C00FFF778FF0121FA2000F0B2FEFFF790FF92
:10049C001BE0FFF76FFF0121FA2000F0A9FEFFF728
:1004AC009BFF12E0FFF766FF0121FA2000F0A0FE8F
:1004BC00FFF7A6FF09E0FFF75DFF0121FA2000F02E
:1004CC0097FEFFF7B1FF00E000BF074B1B6801333D
:1004DC005A4203F0030302F0030258BF5342143391
:1004EC00014A136000BF80BD2000002080B500AF22
:1004FC002021054801F01FFA4FF48071024801F0E9
:10050C001AFA00BF80BD00BF0008014080B500AFE3
:10051C004021054801F00FFA4FF40071024801F038
:10052C000AFA00BF80BD00BF0008014080B500AFD3
:10053C008021054801F0FFF94FF48061024801F079
:10054C00FAF900BF80BD00BF0008014080B400AFC5
:10055C000E4B1B680E4A82FB03129210DB17D31A48
:10056C000C4A1360094B1968094B83FB01239A1041
:10057C00CB17D21A13469B0013445B00CA1A054BC7
:10058C005A6000BFBD4680BC704700BF0C00002005
:10059C0067666666A000002080B400AF0E4B5B68F7
:1005AC000E4A82FB03129210DB17D31A0C4A13600B
:1005BC00094B5968094B83FB01239A10CB17D21AAC
:1005CC0013469B0013445B00CA1A054B5A6000BFCC
:1005DC00BD4680BC704700BF0C0000206766666695
:1005EC00A000002080B400AF0E4B9B680E4A82FB2B
:1005FC0003129210DB17D31A0C4A1360094B99683B
:10060C00094B83FB01239A10CB17D21A13469B007C
:10061C0013445B00CA1A054B5A6000BFBD4680BC30
:10062C00704700BF0C00002067666666A0000020C3
:10063C0080B483B000AF7860054B00229A60044A06
:10064C007B68D36000BF0C37BD4680BC704700BFD1
:10065C00A000002080B500AF7E4B1B680A3B032B2B
:10066C0000F2EC8001A252F823F000BF89060008CA
:10067C00AD0600083B070008C70700080020FFF77D
:10068C00A3FD0346002B00F0DB80724B0B221A609B
:10069C0000214FF4FA7000F0ABFD00F0E1F8CFE070
:1006AC000220FFF7C5FF012000F0BCFD0346002B24
:1006BC0006D0FFF71BFF00214FF4FA7000F098FDF5
:1006CC000120FFF781FD0346002B11D0624B1A6805
:1006DC00624B83FB021313449911D317C91A0B46AF
:1006EC005B000B4459010B44D11A4B1C5A4A136042
:1006FC00FFF72CFF0020FFF767FD0346002B09D006
:10070C00544B0C221A6000214FF4FA7000F070FD6B
:10071C0000F0A6F80220FFF757FD0346002B00F06F
:10072C0091804C4B0A221A6000F09AF88AE0032060
:10073C00FFF77EFF012000F075FD0346002B06D06D
:10074C00FFF7E4FE00214FF4FA7000F051FD012098
:10075C00FFF73AFD0346002B11D03F4B5A683F4B35
:10076C0083FB021313449911D317C91A0B465B0070
:10077C000B4459010B44D11A4B1C374A5360FFF7F9
:10078C000BFF0020FFF720FD0346002B09D0314B57
:10079C000D221A6000214FF4FA7000F029FD00F0D0
:1007AC005FF80220FFF710FD0346002B4CD0294BBD
:1007BC000A221A6000F054F846E00420FFF738FFD4
:1007CC00012000F02FFD0346002B06D0FFF7AEFEF4
:1007DC0000214FF4FA7000F00BFD0120FFF7F4FC40
:1007EC000346002B11D01C4B9A681C4B83FB021345
:1007FC0013449911D317C91A0B465B000B445901CA
:10080C000B44D11A4B1C144A9360FFF7EBFE0020EB
:10081C00FFF7DAFC0346002B04D00E4B0A221A60B9
:10082C0000F01EF80220FFF7CFFC0346002B0DD082
:10083C00084B0A221A6000F013F807E000BF06E02C
:10084C0000BF04E000BF02E000BF00E000BF00BF3B
:10085C0080BD00BFB80000200C00002003B57EA5B1
:10086C0080B500AF00224FF48071104801F04BF8B6
:10087C0000224FF400710D4801F045F800224FF4AE
:10088C0080610A4801F03FF800222021074801F05E
:10089C003AF800224021054801F035F80022802169
:1008AC00024801F030F800BF80BD00BF00080140D5
:1008BC0080B500AF00222021074801F024F8002267
:1008CC004021054801F01FF800228021024801F068
:1008DC001AF800BF80BD00BF0008014080B500AF12
:1008EC0000224FF48071084801F00DF800224FF4FB
:1008FC000071054801F007F800224FF480610248AE
:10090C0001F001F800BF80BD0008014080B500AFC8
:10091C00054B1B68013B044A136002214FF47A70AB
:10092C0000F066FC00BF80BDB000002080B500AFB9
:10093C00054B1B68013B044A136003214FF47A708A
:10094C0000F056FC00BF80BDB400002080B500AFA5
:10095C00AB4B1B68013B032B00F2D48001A252F875
:10096C0023F000BF81090008FF0900087B0A00087A
:10097C00F70A0008A34B1B68A34A82FB03129210D0
:10098C00DB17D31AA14A13609E4B19689E4B83FB4D
:10099C0001239A10CB17D21A13469B0013445B0009
:1009AC00CA1A9A4B5A6001224FF48071984800F091
:1009BC00AAFF022000F036FC0346002B01D0FFF703
:1009CC00A5FF904B1B68002B08DCFFF787FF8C4BB7
:1009DC0003221A608F4B9B688A4A13608E4B1B68EC
:1009EC000A2B00F0B480864B04221A60FFF738FF04
:1009FC00ADE0844B1B68844A82FB03129210DB1718
:100A0C00D31A824A13607F4B19687F4B83FB0123F7
:100A1C009A10CB17D21A13469B0013445B00CA1AC8
:100A2C007A4B5A6001224FF40071794800F06BFF49
:100A3C00022000F0F7FB0346002B01D0FFF766FF06
:100A4C00704B1B68002B08DCFFF748FF6C4B012236
:100A5C001A60704B1B686B4A13606F4B1B680A2B38
:100A6C0077D0674B04221A60FFF7FAFE71E0654BF2
:100A7C001B68654A82FB03129210DB17D31A634A78
:100A8C001360604B1968604B83FB01239A10CB17E2
:100A9C00D21A13469B0013445B00CA1A5B4B5A6074
:100AAC0001224FF480615A4800F02DFF022000F023
:100ABC00B9FB0346002B01D0FFF728FF514B1B68F5
:100ACC00002B08DCFFF70AFF4D4B02221A60514B3A
:100ADC005B684C4A1360504B1B680A2B3BD0484B4D
:100AEC0004221A60FFF7BCFE35E002214FF47A7045
:100AFC0000F07EFB484B1B680A2B2ED1404B00228A
:100B0C001A602AE0444B1B680A2B28D1414B1B6806
:100B1C003C4A13603B4B1B683B4A82FB031292100E
:100B2C00DB17D31A394A1360364B1968364B83FBE3
:100B3C0001239A10CB17D21A13469B0013445B0067
:100B4C00CA1A324B5A602E4B01221A6007E000BFC2
:100B5C0006E000BF04E000BF02E000BF00E000BF01
:100B6C002E4B1B68013B032B00F2E38001A252F8D1
:100B7C0023F000BF910B0008310C0008AB0C0008EF
:100B8C00250D0008264B1B681F4A82FB031292108E
:100B9C00DB17D31A1D4A9360214B19681A4B83FB40
:100BAC0001239A10CB17D21A13469B0013445B00F7
:100BBC00CA1A164BDA6001222021154800F0A3FE58
:100BCC00032000F02FFB0346002B01D0FFF7AEFEF5
:100BDC00134B1B68002B08DCFFF76AFE0F4B03223C
:100BEC001A600C4B9B680E4A13600B4B1B680A2B4C
:100BFC0000F0C480094B04221A60FFF731FEBDE0FF
:100C0C0018000020B000002067666666A000002077
:100C1C00000801400C000020B80000201C0000203F
:100C2C00B40000205B4B1B685B4A82FB03129210E2
:100C3C00DB17D31A594A9360564B1968564B83FBF2
:100C4C0001239A10CB17D21A13469B0013445B0056
:100C5C00CA1A524BDA6001224021514800F053FE6F
:100C6C00032000F0DFFA0346002B01D0FFF75EFEF5
:100C7C00484B1B68002B08DCFFF71AFE494B01227E
:100C8C001A60494B1B68434A1360484B1B680A2B7C
:100C9C0076D0444B04221A60FFF7E2FD70E03D4B26
:100CAC001B683D4A82FB03129210DB17D31A3B4A96
:100CBC009360384B1968384B83FB01239A10CB1780
:100CCC00D21A13469B0013445B00CA1A334BDA60EA
:100CDC0001228021324800F016FE032000F0A2FA17
:100CEC000346002B01D0FFF721FE2A4B1B68002B7B
:100CFC0008DCFFF7DDFD2B4B02221A602A4B5B68E8
:100D0C00244A1360294B1B680A2B3BD0254B042229
:100D1C001A60FFF7A5FD35E003214FF47A7000F05F
:100D2C0067FA224B1B680A2B2ED11E4B00221A602D
:100D3C002AE01E4B1B680A2B28D11B4B9B68154ABB
:100D4C001360144B1B68144A82FB03129210DB17BE
:100D5C00D31A124A93600F4B19680F4B83FB012374
:100D6C009A10CB17D21A13469B0013445B00CA1A75
:100D7C000A4BDA600B4B03221A6007E000BF06E057
:100D8C0000BF04E000BF02E000BF00E000BF00BFF6
:100D9C0080BD00BFB400002067666666A00000201E
:100DAC00000801401C0000200C000020B8000020AE
:100DBC0080B584B000AF78600023FB6023E07A68D4
:100DCC00FB6842FA03F303F00103002B0CD0124A28
:100DDC00FB6852F82300114AFB6832F813300122E9
:100DEC00194600F090FD0BE00B4AFB6852F823000B
:100DFC000A4AFB6832F813300022194600F083FDD2
:100E0C00FB680133FB60FB68062BD8DD00BF00BF1D
:100E1C001037BD4680BD00BF2400002040000020DC
:100E2C0080B582B000AF7860054A7B6852F82330F9
:100E3C001846FFF7BDFF00BF0837BD4680BD00BF99
:100E4C005000002080B500AF00F05CFA00F022F8F2
:100E5C0000F05CF800F0A6F80C4801F0BDF9FFF7C3
:100E6C006FF900F0A5F9FFF785FAFFF7F9FC084BCD
:100E7C000A221A600221FA2000F0BAF9FFF7EAFB05
:100E8C00FFF7E6FAFFF762FDF8E700BF1C01002050
:100E9C00B800002080B590B000AF07F118032822ED
:100EAC000021184601F050FD3B1D00221A605A60CB
:100EBC009A60DA601A610223BB610123BB621023C2
:100ECC00FB6200237B6307F11803184600F04CFD0E
:100EDC000346002B01D000F0D8F80F237B600023D1
:100EEC00BB600023FB6000233B6100237B613B1D47
:100EFC000021184600F0B8FF0346002B01D000F08B
:100F0C00C4F800BF4037BD4680BD000080B586B038
:100F1C0000AF07F1080300221A605A609A60DA6089
:100F2C003B4600221A605A601D4B4FF080421A60FB
:100F3C001B4B41F63F725A60194B00229A60184BBA
:100F4C000922DA60164B00221A61154B00229A61B5
:100F5C00134801F0F1F80346002B01D000F095F88E
:100F6C004FF48053BB6007F1080319460C4801F09D
:100F7C0087FA0346002B01D000F087F800233B6072
:100F8C0000237B603B461946054801F04FFC0346A5
:100F9C00002B01D000F079F800BF1837BD4680BD9A
:100FAC001C01002080B586B000AF07F108030022B9
:100FBC001A605A609A60DA60284B9B69274A43F0A2
:100FCC0004039361254B9B6903F004037B607B68EE
:100FDC00224B9B69214A43F0080393611F4B9B6989
:100FEC0003F008033B603B68002247F6E0711C48A5
:100FFC0000F089FC00227F211A4800F084FC47F69F
:10100C00E073BB600123FB6000233B6102237B6127
:10101C0007F108031946124800F0E4FA7F23BB607D
:10102C000123FB6000233B6102237B6107F1080372
:10103C0019460C4800F0D6FA4FF46073BB600023DD
:10104C00FB6001233B6107F108031946054800F0DA
:10105C00C9FA00BF1837BD4680BD00BF0010024062
:10106C0000080140000C014080B582B000AF7860F0
:10107C007B681B68B3F1804F03D100F0EDF8FFF7EC
:10108C00DDF800BF0837BD4680BD80B400AF72B636
:10109C0000BFFEE780B485B000AF154B9B69144AC6
:1010AC0043F001039361124B9B6903F00103BB6096
:1010BC00BB680F4BDB690E4A43F08053D3610C4B7A
:1010CC00DB6903F080537B607B680A4B5B68FB60D9
:1010DC00FB6823F0E063FB60FB6843F08063FB601C
:1010EC00044AFB68536000BF1437BD4680BC704790
:1010FC00001002400000014080B584B000AF786061
:10110C007B681B68B3F1804F13D10C4BDB690B4A26
:10111C0043F00103D361094BDB6903F00103FB606E
:10112C00FB68002200211C2000F025FA1C2000F096
:10113C003EFA00BF1037BD4680BD00BF0010024014
:10114C0080B400AFFEE780B400AFFEE780B400AF20
:10115C00FEE780B400AFFEE780B400AFFEE780B4DA
:10116C0000AF00BFBD4680BC704780B400AF00BF6D
:10117C00BD4680BC704780B400AF00BFBD4680BC8C
:10118C00704780B500AF00F003F900BF80BD0000D0
:10119C0080B500AF024801F06BF800BF80BD00BF06
:1011AC001C01002080B400AF00BFBD4680BC70475E
:1011BC0080B483B000AF00237B600CE00A4A7B68EC
:1011CC00002142F82310094A7B68002142F82310C1
:1011DC007B6801337B607B68032BEFDD00BF00BFB6
:1011EC000C37BD4680BC70477401002064010020A0
:1011FC0080B483B000AF786039607B68074A82FBAB
:10120C0003129210DB17D21A05493B6841F82320D0
:10121C0000BF0C37BD4680BC704700BF6766666672
:10122C007401002080B483B000AF7860094A7B68F9
:10123C0052F82330012B06D1064A7B68002142F874
:10124C002310012300E0002318460C37BD4680BC58
:10125C00704700BF6401002080B483B000AF00234E
:10126C007B601CE0124A7B6852F82330002B08DDAF
:10127C000F4A7B6852F823305A1E0D497B6841F89F
:10128C0023200B4A7B6852F82330002B04DC094ADC
:10129C007B68012142F823107B6801337B607B68FB
:1012AC00032BDFDD00BF00BF0C37BD4680BC704791
:1012BC0074010020640100200C480D490D4A0023E4
:1012CC0002E0D458C4500433C4188C42F9D30A4AEF
:1012DC000A4C002301E013600432A242FBD3FFF757
:1012EC0061FF01F00DFBFFF7ADFD70470000002022
:1012FC0084000020AC290008840000208801002014
:10130C00FEE7000080B500AF084B1B68074A43F0AE
:10131C0010031360032000F023F90F2000F008F8ED
:10132C00FFF7B8FE0023184680BD00BF0020024026
:10133C0080B582B000AF7860124B1A68124B1B78E4
:10134C0019464FF47A73B3FBF1F3B2FBF3F318467F
:10135C0000F03BF90346002B01D001230EE07B6823
:10136C000F2B0AD8002279684FF0FF3000F003F9F8
:10137C00064A7B681360002300E0012318460837F7
:10138C00BD4680BD78000020800000207C0000203D
:10139C0080B400AF054B1B781A46054B1B681344F1
:1013AC00034A136000BFBD4680BC7047800000201C
:1013BC008401002080B400AF024B1B681846BD4668
:1013CC0080BC70478401002080B485B000AF786089
:1013DC007B6803F00703FB600C4BDB68BB60BA68EF
:1013EC004FF6FF031340BB60FB681A02BB68134344
:1013FC0043F0BF6343F40033BB60044ABB68D36063
:10140C0000BF1437BD4680BC704700BF00ED00E044
:10141C0080B400AF044BDB681B0A03F007031846CB
:10142C00BD4680BC704700BF00ED00E080B483B0C7
:10143C0000AF0346FB7197F90730002B0BDBFB79F0
:10144C0003F01F02064997F907305B09012000FAE7
:10145C0002F241F8232000BF0C37BD4680BC704718
:10146C0000E100E080B483B000AF03463960FB714B
:10147C0097F90730002B0ADB3B68DAB20C4997F975
:10148C0007301201D2B20B4483F800230AE03B6808
:10149C00DAB20849FB7903F00F03043B1201D2B214
:1014AC000B441A7600BF0C37BD4680BC704700BF9A
:1014BC0000E100E000ED00E080B489B000AFF8601E
:1014CC00B9607A60FB6803F00703FB61FB69C3F149
:1014DC000703042B28BF0423BB61FB690433062BD1
:1014EC0002D9FB69033B00E000237B614FF0FF3224
:1014FC00BB6902FA03F3DA43BB681A407B699A4072
:10150C004FF0FF317B6901FA03F3D9437B680B4041
:10151C00134318462437BD4680BC704780B582B053
:10152C0000AF78607B68013BB3F1807F01D301236E
:10153C000FE00A4A7B68013B53600F214FF0FF30EC
:10154C00FFF790FF054B00229A60044B07221A60AC
:10155C00002318460837BD4680BD00BF10E000E0F0
:10156C0080B582B000AF78607868FFF72DFF00BFC0
:10157C000837BD4680BD80B586B000AF0346B96064
:10158C007A60FB7300237B61FFF742FF78617A6816
:10159C00B9687869FFF790FF024697F90F3011464A
:1015AC001846FFF75FFF00BF1837BD4680BD80B5FA
:1015BC0082B000AF0346FB7197F907301846FFF76E
:1015CC0035FF00BF0837BD4680BD80B582B000AF87
:1015DC0078607868FFF7A2FF034618460837BD46C7
:1015EC0080BD000080B48BB000AF78603960002300
:1015FC007B6200233B6248E101227B6A02FA03F31F
:10160C00FB613B681B68FA691340BB61BA69FB69F3
:10161C009A4240F037813B685B68A34A93425ED0A4
:10162C00A14A934275D8A14A934258D09F4A9342FB
:10163C006FD89F4A934252D09D4A934269D89D4A93
:10164C0093424CD09B4A934263D89B4A934246D0D8
:10165C00994A93425DD8122B2AD8122B59D801A241
:10166C0052F823F0EB160008C5160008D716000830
:10167C00191700081F1700081F1700081F1700086C
:10168C001F1700081F1700081F1700081F17000856
:10169C001F1700081F1700081F1700081F17000846
:1016AC001F1700081F170008CD160008E1160008C8
:1016BC00824A934213D02CE03B68DB683B6229E002
:1016CC003B68DB6804333B6224E03B68DB6808332F
:1016DC003B621FE03B68DB680C333B621AE03B6803
:1016EC009B68002B02D104233B6213E03B689B6890
:1016FC00012B05D108233B627B68FA691A6109E06A
:10170C0008233B627B68FA695A6103E000233B6261
:10171C0000E000BFBB69FF2B01D87B6801E07B6850
:10172C0004337B61BB69FF2B02D87B6A9B0002E010
:10173C007B6A083B9B003B617B691A680F213B6904
:10174C0001FA03F3DB431A40396A3B6901FA03F3EC
:10175C001A437B691A603B685B6803F08053002B6B
:10176C0000F09080564B9B69554A43F001039361FE
:10177C00534B9B6903F00103BB60BB68514A7B6A06
:10178C009B08023352F82330FB607B6A03F003039F
:10179C009B000F2202FA03F3DB43FA681340FB6051
:1017AC007B68494A93420DD07B68484A934207D0E4
:1017BC007B68474A934201D1022304E0032302E0F1
:1017CC00012300E000237A6A02F0030292009340A6
:1017DC00FA681343FB603B497B6A9B080233FA6847
:1017EC0041F823203B685B6803F48033002B06D060
:1017FC00384B1A683749BB6913430B6006E0354B0D
:10180C001A68BB69DB43334913400B603B685B6868
:10181C0003F40033002B06D02E4B5A682D49BB69BC
:10182C0013434B6006E02B4B5A68BB69DB432949D9
:10183C0013404B603B685B6803F48013002B06D0AD
:10184C00244B9A682349BB6913438B6006E0214BF8
:10185C009A68BB69DB431F4913408B603B685B682C
:10186C0003F40013002B06D01A4BDA681949BB6934
:10187C001343CB6006E0174BDA68BB69DB431549B1
:10188C001340CB607B6A01337B623B681A687B6ACE
:10189C0022FA03F3002B7FF4AFAE00BF00BF2C374E
:1018AC00BD4680BC704700BF0000321000003110F4
:1018BC000000221000002110000012100000111076
:1018CC00001002400000014000080140000C0140E3
:1018DC00001001400004014080B485B000AF786076
:1018EC000B467B807B689A687B881340002B02D068
:1018FC000123FB7301E00023FB73FB7B18461437B9
:10190C00BD4680BC704780B483B000AF78600B4696
:10191C007B8013467B707B78002B03D07A887B68A6
:10192C001A6103E07B881A047B681A6100BF0C37CC
:10193C00BD4680BC704780B485B000AF78600B4664
:10194C007B807B68DB68FB607A88FB6813401A0439
:10195C00FB68D9437B880B401A437B681A6100BF34
:10196C001437BD4680BC704780B586B000AF786038
:10197C007B68002B01D101236CE27B681B6803F0B0
:10198C000103002B00F08780924B5B6803F00C0383
:10199C00042B0CD08F4B5B6803F00C03082B12D17B
:1019AC008C4B5B6803F48033B3F5803F0BD1894BD0
:1019BC001B6803F40033002B6CD07B685B68002B36
:1019CC0068D1012346E27B685B68B3F5803F06D1A2
:1019DC00804B1B687F4A43F4803313602EE07B6896
:1019EC005B68002B0CD17B4B1B687A4A23F4803349
:1019FC001360784B1B68774A23F4802313601DE037
:101A0C007B685B68B3F5A02F0CD1724B1B68714AD5
:101A1C0043F4802313606F4B1B686E4A43F480338E
:101A2C0013600BE06B4B1B686A4A23F48033136022
:101A3C00684B1B68674A23F4802313607B685B68E0
:101A4C00002B13D0FFF7B6FC386108E0FFF7B2FCAF
:101A5C0002463B69D31A642B01D90323FAE15D4B8F
:101A6C001B6803F40033002BF0D014E0FFF7A2FC4A
:101A7C00386108E0FFF79EFC02463B69D31A642BE1
:101A8C0001D90323E6E1534B1B6803F40033002B0D
:101A9C00F0D100E000BF7B681B6803F00203002B51
:101AAC0063D04C4B5B6803F00C03002B0BD0494B01
:101ABC005B6803F00C03082B1CD1464B5B6803F4EA
:101ACC008033002B16D1434B1B6803F00203002B11
:101ADC0005D07B681B69012B01D00123BAE13D4B7A
:101AEC001B6823F0F8027B685B69DB003949134300
:101AFC000B603AE07B681B69002B20D0364B01222F
:101B0C001A60FFF757FC386108E0FFF753FC0246F8
:101B1C003B69D31A022B01D903239BE12D4B1B6884
:101B2C0003F00203002BF0D02A4B1B6823F0F802C1
:101B3C007B685B69DB00274913430B6015E0264B80
:101B4C0000221A60FFF736FC386108E0FFF732FC20
:101B5C0002463B69D31A022B01D903237AE11D4BB0
:101B6C001B6803F00203002BF0D17B681B6803F0A9
:101B7C000803002B3AD07B689B69002B19D0174BBC
:101B8C0001221A60FFF716FC386108E0FFF712FC1F
:101B9C0002463B69D31A022B01D903235AE10D4BA0
:101BAC005B6A03F00203002BF0D0012000F0A6FAD0
:101BBC001CE00A4B00221A60FFF7FCFB38610FE0B7
:101BCC00FFF7F8FB02463B69D31A022B08D9032313
:101BDC0040E100BF0010024000004242800442423B
:101BEC009E4B5B6A03F00203002BE9D17B681B68F8
:101BFC0003F00403002B00F0A6800023FB75974B29
:101C0C00DB6903F08053002B0DD1944BDB69934AB5
:101C1C0043F08053D361914BDB6903F08053BB607D
:101C2C00BB680123FB758E4B1B6803F48073002B80
:101C3C0018D18B4B1B688A4A43F480731360FFF7EF
:101C4C00B9FB386108E0FFF7B5FB02463B69D31AD4
:101C5C00642B01D90323FDE0814B1B6803F48073D3
:101C6C00002BF0D07B68DB68012B06D17B4B1B6A09
:101C7C007A4A43F0010313622DE07B68DB68002B8A
:101C8C000CD1764B1B6A754A23F001031362734B1C
:101C9C001B6A724A23F0040313621CE07B68DB6846
:101CAC00052B0CD16D4B1B6A6C4A43F00403136279
:101CBC006A4B1B6A694A43F0010313620BE0674BE2
:101CCC001B6A664A23F001031362644B1B6A634A66
:101CDC0023F0040313627B68DB68002B15D0FFF73D
:101CEC0069FB38610AE0FFF765FB02463B69D31AD2
:101CFC0041F28832934201D90323ABE0574B1B6A64
:101D0C0003F00203002BEED014E0FFF753FB386115
:101D1C000AE0FFF74FFB02463B69D31A41F28832C7
:101D2C00934201D9032395E04C4B1B6A03F0020349
:101D3C00002BEED1FB7D012B05D1484BDB69474ACB
:101D4C0023F08053D3617B68DB69002B00F081802A
:101D5C00424B5B6803F00C03082B61D07B68DB699A
:101D6C00022B46D13F4B00221A60FFF723FB386150
:101D7C0008E0FFF71FFB02463B69D31A022B01D97F
:101D8C00032367E0354B1B6803F00073002BF0D185
:101D9C007B681B6AB3F5803F08D1304B5B6823F43A
:101DAC0000327B689B682D4913434B602B4B5B685F
:101DBC0023F474127B68196A7B685B6A0B432749AE
:101DCC0013434B60274B01221A60FFF7F3FA38617B
:101DDC0008E0FFF7EFFA02463B69D31A022B01D950
:101DEC00032337E01D4B1B6803F00073002BF0D06E
:101DFC002FE01C4B00221A60FFF7DCFA386108E078
:101E0C00FFF7D8FA02463B69D31A022B01D90323F8
:101E1C0020E0124B1B6803F00073002BF0D118E08C
:101E2C007B68DB69012B01D1012313E00B4B5B6851
:101E3C00FB60FB6803F480327B681B6A9A4206D114
:101E4C00FB6803F470127B685B6A9A4201D0012331
:101E5C0000E0002318461837BD4680BD0010024034
:101E6C00007000406000424280B584B000AF7860E2
:101E7C0039607B68002B01D10123D0E06A4B1B68D1
:101E8C0003F007033A689A4210D9674B1B6823F09A
:101E9C00070265493B6813430B60634B1B6803F0F7
:101EAC0007033A689A4201D00123B8E07B681B68AB
:101EBC0003F00203002B20D07B681B6803F00403A3
:101ECC00002B05D0594B5B68584A43F4E0635360D0
:101EDC007B681B6803F00803002B05D0534B5B6831
:101EEC00524A43F460535360504B5B6823F0F0024A
:101EFC007B689B684D4913434B607B681B6803F000
:101F0C000103002B40D07B685B68012B07D1474B4A
:101F1C001B6803F40033002B15D101237FE07B6891
:101F2C005B68022B07D1414B1B6803F00073002B3D
:101F3C0009D1012373E03D4B1B6803F00203002B16
:101F4C0001D101236BE0394B5B6823F003027B6802
:101F5C005B68364913434B60FFF72CFAF8600AE0D4
:101F6C00FFF728FA0246FB68D31A41F288329342F3
:101F7C0001D9032353E02D4B5B6803F00C027B6803
:101F8C005B689B009A42EBD1274B1B6803F007035D
:101F9C003A689A4210D2244B1B6823F0070222495C
:101FAC003B6813430B60204B1B6803F007033A6834
:101FBC009A4201D0012332E07B681B6803F00403D2
:101FCC00002B08D0194B5B6823F4E0627B68DB685C
:101FDC00164913434B607B681B6803F00803002B06
:101FEC0009D0124B5B6823F460527B681B69DB00E1
:101FFC000E4913434B6000F021F802460B4B5B6813
:10200C001B0903F00F030A49CB5C22FA03F3094ABC
:10201C001360094B1B681846FFF78AF90023184612
:10202C001037BD4680BD00BF0020024000100240AA
:10203C0094290008780000207C00002090B48AB01D
:10204C0000AF2A4B3C1D0FCB84E80F0040F201235C
:10205C003B800023FB610023BB6100237B620023D8
:10206C007B6100233B62224B5B68FB61FB6903F0E5
:10207C000C03042B02D0082B03D02DE01D4B3B622C
:10208C002DE0FB699B0C03F00F0307F128021344AE
:10209C0013F8243C7B61FB6903F48033002B13D0D1
:1020AC00134B5B685B0C03F0010307F1280213442C
:1020BC0013F8283CBB617B690E4A02FB03F2BB6937
:1020CC00B2FBF3F37B6204E07B690B4A02FB03F384
:1020DC007B627B6A3B6202E0064B3B6200BF3B6A61
:1020EC0018462837BD4690BC704700BF7C290008B5
:1020FC000010024000127A0000093D0080B485B047
:10210C0000AF78600A4B1B680A4AA2FB03235B0AE8
:10211C007A6802FB03F3FB6000BFFB685A1EFA608F
:10212C00002BF9D100BF00BF1437BD4680BC7047EF
:10213C0078000020D34D621080B582B000AF78607B
:10214C007B68002B01D1012341E07B6893F83D3083
:10215C00DBB2002B06D17B68002283F83C20786828
:10216C00FEF7CAFF7B68022283F83D207B681A6861
:10217C007B6804331946104600F06AFA7B6801222A
:10218C0083F846207B68012283F83E207B6801227D
:10219C0083F83F207B68012283F840207B68012272
:1021AC0083F841207B68012283F842207B6801225E
:1021BC0083F843207B68012283F844207B6801224A
:1021CC0083F845207B68012283F83D2000231846C4
:1021DC000837BD4680BD000080B485B000AF786084
:1021EC007B6893F83D30DBB2012B01D0012335E045
:1021FC007B68022283F83D207B681B68DA687B6869
:10220C001B6842F00102DA607B681B68164A934235
:10221C0009D07B681B68B3F1804F04D07B681B68C6
:10222C00124A934211D17B681B689B6803F0070329
:10223C00FB60FB68062B10D07B681B681A687B68F8
:10224C001B6842F001021A6007E07B681B681A6881
:10225C007B681B6842F001021A6000231846143791
:10226C00BD4680BC704700BF002C014000040040FC
:10227C0080B582B000AF78607B681B681B6903F087
:10228C000203022B22D17B681B68DB6803F002037C
:10229C00022B1BD17B681B686FF002021A617B68F2
:1022AC0001221A777B681B689B6903F00303002BE0
:1022BC0003D0786800F0B1F905E0786800F0A4F973
:1022CC00786800F0B3F97B6800221A777B681B688A
:1022DC001B6903F00403042B22D17B681B68DB68A9
:1022EC0003F00403042B1BD17B681B686FF0040202
:1022FC001A617B6802221A777B681B689B6903F45E
:10230C004073002B03D0786800F087F905E07868FB
:10231C0000F07AF9786800F089F97B6800221A7766
:10232C007B681B681B6903F00803082B22D17B68B0
:10233C001B68DB6803F00803082B1BD17B681B6848
:10234C006FF008021A617B6804221A777B681B689D
:10235C00DB6903F00303002B03D0786800F05DF910
:10236C0005E0786800F050F9786800F05FF97B6858
:10237C0000221A777B681B681B6903F01003102B73
:10238C0022D17B681B68DB6803F01003102B1BD178
:10239C007B681B686FF010021A617B6808221A7741
:1023AC007B681B68DB6903F44073002B03D07868EF
:1023BC0000F033F905E0786800F026F9786800F051
:1023CC0035F97B6800221A777B681B681B6903F060
:1023DC000103012B0ED17B681B68DB6803F0010342
:1023EC00012B07D17B681B686FF001021A617868BA
:1023FC00FEF73AFE7B681B681B6903F08003802B99
:10240C000ED17B681B68DB6803F08003802B07D13F
:10241C007B681B686FF080021A61786800F067FABD
:10242C007B681B681B6903F04003402B0ED17B6853
:10243C001B68DB6803F04003402B07D17B681B68EB
:10244C006FF040021A61786800F0F9F87B681B683D
:10245C001B6903F02003202B0ED17B681B68DB6803
:10246C0003F02003202B07D17B681B686FF0200240
:10247C001A61786800F032FA00BF0837BD4680BD9B
:10248C0080B584B000AF786039607B6893F83C30DD
:10249C00012B01D10223B3E07B68012283F83C209D
:1024AC007B68022283F83D207B681B689B68FB607D
:1024BC00FB6823F07703FB60FB6823F47F43FB602E
:1024CC007B681B68FA689A603B681B68B3F5005F11
:1024DC003ED0B3F5005F00F28780B3F5805F00F06B
:1024EC008580B3F5805F7FD8702B1AD0702B7BD88A
:1024FC00602B50D0602B77D8502B3CD0502B73D8FE
:10250C00402B58D0402B6FD8302B64D0302B6BD84D
:10251C00202B60D0202B67D8002B5CD0102B5AD0EE
:10252C0062E07B6818683B6899683B685A683B684E
:10253C00DB6800F05CF97B681B689B68FB60FB68E0
:10254C0043F07703FB607B681B68FA689A604EE087
:10255C007B6818683B6899683B685A683B68DB681D
:10256C0000F045F97B681B689A687B681B6842F42D
:10257C0080429A603BE07B6818683B6859683B680E
:10258C00DB681A4600F0BCF87B681B6850211846C3
:10259C0000F013F92BE07B6818683B6859683B68BE
:1025AC00DB681A4600F0DAF87B681B686021184675
:1025BC0000F003F91BE07B6818683B6859683B68BE
:1025CC00DB681A4600F09CF87B681B6840211846B3
:1025DC0000F0F3F80BE07B681A683B681B6819463F
:1025EC00104600F0EAF802E000BF00E000BF7B6894
:1025FC00012283F83D207B68002283F83C200023D5
:10260C0018461037BD4680BD80B483B000AF7860EB
:10261C0000BF0C37BD4680BC704780B483B000AFA0
:10262C00786000BF0C37BD4680BC704780B483B067
:10263C0000AF786000BF0C37BD4680BC704780B4DB
:10264C0083B000AF786000BF0C37BD4680BC7047CC
:10265C0080B485B000AF786039607B681B68FB6024
:10266C007B68254A934207D07B68B3F1804F03D037
:10267C007B68224A934208D1FB6823F07003FB600D
:10268C003B685B68FA681343FB607B681A4A9342A9
:10269C0007D07B68B3F1804F03D07B68174A934215
:1026AC0008D1FB6823F44073FB603B68DB68FA6875
:1026BC001343FB60FB6823F080023B685B691343A8
:1026CC00FB607B68FA681A603B689A687B68DA6220
:1026DC003B681A687B689A627B68074A934203D10D
:1026EC003B681A697B681A637B6801225A6100BFD8
:1026FC001437BD4680BC7047002C014000040040DC
:10270C0080B487B000AFF860B9607A60FB681B6A70
:10271C007B61FB681B6A23F00102FB681A62FB6891
:10272C009B693B613B6923F0F0033B617B681B01B8
:10273C003A6913433B617B6923F00A037B617A6935
:10274C00BB6813437B61FB683A699A61FB687A69E1
:10275C001A6200BF1C37BD4680BC704780B487B07E
:10276C0000AFF860B9607A60FB681B6A23F0100256
:10277C00FB681A62FB689B697B61FB681B6A3B61A7
:10278C007B6923F470437B617B681B037A69134379
:10279C007B613B6923F0A0033B61BB681B013A6979
:1027AC0013433B61FB687A699A61FB683A691A6268
:1027BC0000BF1C37BD4680BC704780B485B000AFED
:1027CC00786039607B689B68FB60FB6823F0700362
:1027DC00FB603A68FB68134343F00703FB607B68BC
:1027EC00FA689A6000BF1437BD4680BC704780B44D
:1027FC0087B000AFF860B9607A603B60FB689B689B
:10280C007B617B6923F47F437B613B681A027B68A5
:10281C001A43BB6813437A6913437B61FB687A697B
:10282C009A6000BF1C37BD4680BC704780B485B031
:10283C0000AF786039607B6893F83C30012B01D194
:10284C00022341E07B68012283F83C207B68022252
:10285C0083F83D207B681B685B68FB607B681B68AA
:10286C009B68BB60FB6823F07003FB603B681B68D4
:10287C00FA681343FB607B681B68FA685A607B68D4
:10288C001B68144A934209D07B681B68B3F1804FD4
:10289C0004D07B681B68104A93420CD1BB6823F0B0
:1028AC008003BB603B685B68BA681343BB607B68A2
:1028BC001B68BA689A607B68012283F83D207B68AC
:1028CC00002283F83C20002318461437BD4680BCF8
:1028DC00704700BF002C01400004004080B483B05E
:1028EC0000AF786000BF0C37BD4680BC704780B429
:1028FC0083B000AF786000BF0C37BD4680BC70471A
:10290C0070B500260C4D0D4C641BA410A64209D1C9
:10291C0000F022F800260A4D0A4C641BA410A642B3
:10292C0005D170BD55F8043B98470136EEE755F8D4
:10293C00043B98470136F2E7A4290008A4290008B3
:10294C00A4290008A829000803460244934200D198
:10295C00704703F8011BF9E7F8B500BFF8BC08BCD9
:10296C009E467047F8B500BFF8BC08BC9E46704741
:10297C0002030405060708090A0B0C0D0E0F1010B4
:10298C0080000001000200000000000000000000B8
:08299C0001020304060708090B
:0429A40031010008F5
:0429A8000D01000815
:1029AC00000C0140000C0140000C0140050000002F
:1029BC0002000000030000000400000004000000FE
:1029CC0014000000000C0140000C0140000C014000
:1029DC00000C0140000C0140000C0140000C0140B7
:1029EC00010002000400080010002000400000005C
:1029FC00C0000000F9000000A4000000B0000000BE
:102A0C00990000009200000082000000F800000015
:102A1C0080000000900000000024F4001000000072
:042A2C0001000000A5
:04000005080012C518
:00000001FF
