:020000040800F2
:100000000028002085070008A5060008AB060008A8
:10001000B1060008B7060008BD0600080000000091
:10002000000000000000000000000000C3060008FF
:10003000CF06000800000000DB060008E706000805
:10004000CD070008CD070008CD070008CD07000840
:10005000CD070008CD070008CD070008CD07000830
:10006000CD070008CD070008CD070008CD07000820
:10007000CD070008CD070008CD070008CD07000810
:10008000CD070008CD070008CD070008CD07000800
:10009000CD070008CD070008CD070008CD070008F0
:1000A000CD070008CD070008CD070008CD070008E0
:1000B000F5060008CD07000800000000CD07000885
:1000C000CD0700080000000000000000CD07000878
:1000D00000000000CD070008CD0700080000000068
:1000E000CD070008CD070008CD070008000000007C
:1000F0000000000000000000000000000000000000
:0C01000000000000000000005FF808F1A3
:10010C0010B5054C237833B9044B13B10448AFF345
:10011C0000800123237010BD380000200000000077
:10012C00F81D000808B5034B1BB103490348AFF396
:10013C00008008BD000000003C000020F81D0008F5
:10014C0080B582B000AF78607B6803F00103002BB0
:10015C0005D001220121364800F01EFE04E00022E9
:10016C000121334800F018FE7B6803F00203002BDA
:10017C0005D0012202212E4800F00EFE04E00022E0
:10018C0002212B4800F008FE7B6803F00403002BCF
:10019C0005D001220421264800F0FEFD04E00022D7
:1001AC000421234800F0F8FD7B6803F00803002BC2
:1001BC0005D0012208211E4800F0EEFD04E00022CB
:1001CC0008211B4800F0E8FD7B6803F01003002BAE
:1001DC0005D001221021164800F0DEFD04E00022BB
:1001EC001021134800F0D8FD7B6803F02003002B8E
:1001FC0005D0012220210E4800F0CEFD04E00022A3
:10020C0020210B4800F0C8FD7B6803F04003002B55
:10021C0005D001224021064800F0BEFD04E000227A
:10022C004021034800F0B8FD00BF0837BD4680BD33
:10023C00000C014080B582B000AF7860054A7B6845
:10024C0052F823301846FFF77BFF00BF0837BD4636
:10025C0080BD00BF0000002080B582B000AFC7F8A1
:10026C0004C0012240210C4800F096FD012280219F
:10027C00094800F091FD01224FF48071064800F00E
:10028C008BFD01224FF40071034800F085FD00BF87
:10029C000837BD4680BD00BF0008014090B58BB04B
:1002AC0000AF07F13803FB6100F08CFA00F0B2F8F4
:1002BC0000F0ECF800F036F9194801F0D7F93B1DC5
:1002CC009C46FFF7C9FF0023BB6104233B6200235C
:1002DC007B62144B3C1D0FCB84E80F0019237B6110
:1002EC007B69184600F010FA00F022FA0346BB6155
:1002FC0011E03A6A7B6A9A4205DC00237B6210218A
:10030C00094800F061FD7B6A5A1C7A623A1D9446DA
:10031C00184600F00BF8BB69012BEAD0E4E700BFEC
:10032C0054000020101E00080008014090B583B056
:10033C0000AF78606446C7F800C07B68032B61D8B7
:10034C0001A252F823F000BF650300088F030008D8
:10035C00B9030008E503000800236361236918460C
:10036C0000F0D2F9A446FFF777FF7B6854F82330EE
:10037C001846FFF75FFF00224021254800F00CFDD6
:10038C0041E0002363612369184600F0BDF9A446DF
:10039C00FFF762FF7B6854F823301846FFF74AFFDB
:1003AC00002280211A4800F0F7FC2CE00023636146
:1003BC002369184600F0A8F9A446FFF74DFF7B68A7
:1003CC0054F823301846FFF735FF00224FF48071A4
:1003DC000F4800F0E1FC16E0002363612369184626
:1003EC0000F092F9A446FFF737FF7B6854F82330EE
:1003FC001846FFF71FFF00224FF40071044800F06D
:10040C00CBFC00E000BF00BF0C37BD4690BD00BF69
:10041C000008014080B590B000AF07F11803282206
:10042C000021184601F0DAFC3B1D00221A605A60CC
:10043C009A60DA601A610223BB610123BB6210234C
:10044C00FB6200237B6307F11803184600F0D6FC0F
:10045C000346002B01D000F0C3F80F237B60002370
:10046C00BB600023FB6000233B6100237B613B1DD1
:10047C000021184600F042FF0346002B01D000F08B
:10048C00AFF800BF4037BD4680BD000080B586B0D8
:10049C0000AF07F1080300221A605A609A60DA6014
:1004AC003B4600221A605A601D4B4FF080421A6086
:1004BC001B4B41F63F725A60194B00229A60184B45
:1004CC000922DA60164B00221A61154B00229A6140
:1004DC00134801F07BF80346002B01D000F080F8A4
:1004EC004FF48053BB6007F1080319460C4801F028
:1004FC0011FA0346002B01D000F072F800233B6088
:10050C0000237B603B461946054801F0D9FB0346A6
:10051C00002B01D000F064F800BF1837BD4680BD39
:10052C005400002080B586B000AF07F1080300220C
:10053C001A605A609A60DA60214B9B69204A43F03A
:10054C00040393611E4B9B6903F004037B607B687F
:10055C001B4B9B691A4A43F008039361184B9B6928
:10056C0003F008033B603B6800224FF4747115489C
:10057C0000F012FC00227F21134800F00DFC4FF418
:10058C007473BB600123FB6000233B6102237B611E
:10059C0007F1080319460B4800F084FA7F23BB606F
:1005AC000123FB6000233B6102237B6107F10803FD
:1005BC001946054800F076FA00BF1837BD4680BDD5
:1005CC000010024000080140000C014080B582B0D0
:1005DC0000AF786000F0B6F800BF0837BD4680BDAC
:1005EC0080B400AF72B600BFFEE7000080B485B0E7
:1005FC0000AF154B9B69144A43F001039361124BF6
:10060C009B6903F00103BB60BB680F4BDB690E4AAF
:10061C0043F08053D3610C4BDB6903F080537B6058
:10062C007B680A4B5B68FB60FB6823F0E063FB6054
:10063C00FB6843F08063FB60044AFB68536000BFB7
:10064C001437BD4680BC70470010024000000140CA
:10065C0080B584B000AF78607B681B68B3F1804FC5
:10066C0013D10C4BDB690B4A43F00103D361094BEB
:10067C00DB6903F00103FB60FB68002200211C20F6
:10068C0000F0D9F91C2000F0F2F900BF1037BD467C
:10069C0080BD00BF0010024080B400AFFEE780B404
:1006AC0000AFFEE780B400AFFEE780B400AFFEE71A
:1006BC0080B400AFFEE780B400AF00BFBD4680BC85
:1006CC00704780B400AF00BFBD4680BC704780B49B
:1006DC0000AF00BFBD4680BC704780B500AF00F0D6
:1006EC00B7F800BF80BD000080B500AF024801F034
:1006FC0009F800BF80BD00BF5400002080B400AFDB
:10070C0000BFBD4680BC704780B483B000AF78603A
:10071C00054A7B681360054B00221A6000BF0C373A
:10072C00BD4680BC704700BF2C0000209C00002000
:10073C0080B400AF024B1B681846BD4680BC7047A6
:10074C009C00002080B400AF094B1B68002B04DD1B
:10075C00074B1B68013B064A1360054B1B68002BBB
:10076C0002DC044B01221A6000BFBD4680BC7047FE
:10077C002C0000209C0000200C480D490D4A002341
:10078C0002E0D458C4500433C4188C42F9D30A4A3A
:10079C000A4C002301E013600432A242FBD3FFF7A2
:1007AC00ADFF01F0F7FAFFF779FD7047000000206C
:1007BC0038000020481E000838000020A40000204B
:1007CC00FEE7000080B500AF084B1B68074A43F0FA
:1007DC0010031360032000F023F90F2000F008F839
:1007EC00FFF704FF0023184680BD00BF0020024025
:1007FC0080B582B000AF7860124B1A68124B1B7830
:10080C0019464FF47A73B3FBF1F3B2FBF3F31846CA
:10081C0000F03BF90346002B01D001230EE07B686E
:10082C000F2B0AD8002279684FF0FF3000F003F943
:10083C00064A7B681360002300E001231846083742
:10084C00BD4680BD28000020340000203000002070
:10085C0080B400AF054B1B781A46054B1B6813443C
:10086C00034A136000BFBD4680BC704734000020B3
:10087C00A000002080B400AF024B1B681846BD4698
:10088C0080BC7047A000002080B485B000AF7860B9
:10089C007B6803F00703FB600C4BDB68BB60BA683A
:1008AC004FF6FF031340BB60FB681A02BB6813438F
:1008BC0043F0BF6343F40033BB60044ABB68D360AE
:1008CC0000BF1437BD4680BC704700BF00ED00E090
:1008DC0080B400AF044BDB681B0A03F00703184617
:1008EC00BD4680BC704700BF00ED00E080B483B013
:1008FC0000AF0346FB7197F90730002B0BDBFB793C
:10090C0003F01F02064997F907305B09012000FA32
:10091C0002F241F8232000BF0C37BD4680BC704763
:10092C0000E100E080B483B000AF03463960FB7196
:10093C0097F90730002B0ADB3B68DAB20C4997F9C0
:10094C0007301201D2B20B4483F800230AE03B6853
:10095C00DAB20849FB7903F00F03043B1201D2B25F
:10096C000B441A7600BF0C37BD4680BC704700BFE5
:10097C0000E100E000ED00E080B489B000AFF86069
:10098C00B9607A60FB6803F00703FB61FB69C3F194
:10099C000703042B28BF0423BB61FB690433062B1C
:1009AC0002D9FB69033B00E000237B614FF0FF326F
:1009BC00BB6902FA03F3DA43BB681A407B699A40BD
:1009CC004FF0FF317B6901FA03F3D9437B680B408D
:1009DC00134318462437BD4680BC704780B582B09F
:1009EC0000AF78607B68013BB3F1807F01D30123BA
:1009FC000FE00A4A7B68013B53600F214FF0FF3038
:100A0C00FFF790FF054B00229A60044B07221A60F7
:100A1C00002318460837BD4680BD00BF10E000E03B
:100A2C0080B582B000AF78607868FFF72DFF00BF0B
:100A3C000837BD4680BD80B586B000AF0346B960AF
:100A4C007A60FB7300237B61FFF742FF78617A6861
:100A5C00B9687869FFF790FF024697F90F30114695
:100A6C001846FFF75FFF00BF1837BD4680BD80B545
:100A7C0082B000AF0346FB7197F907301846FFF7B9
:100A8C0035FF00BF0837BD4680BD80B582B000AFD2
:100A9C0078607868FFF7A2FF034618460837BD4612
:100AAC0080BD000080B48BB000AF7860396000234B
:100ABC007B6200233B6248E101227B6A02FA03F36A
:100ACC00FB613B681B68FA691340BB61BA69FB693F
:100ADC009A4240F037813B685B68A34A93425ED0F0
:100AEC00A14A934275D8A14A934258D09F4A934247
:100AFC006FD89F4A934252D09D4A934269D89D4ADF
:100B0C0093424CD09B4A934263D89B4A934246D023
:100B1C00994A93425DD8122B2AD8122B59D801A28C
:100B2C0052F823F0AB0B0008850B0008970B00085C
:100B3C00D90B0008DF0B0008DF0B0008DF0B0008E7
:100B4C00DF0B0008DF0B0008DF0B0008DF0B0008D1
:100B5C00DF0B0008DF0B0008DF0B0008DF0B0008C1
:100B6C00DF0B0008DF0B00088D0B0008A10B000841
:100B7C00824A934213D02CE03B68DB683B6229E04D
:100B8C003B68DB6804333B6224E03B68DB6808337A
:100B9C003B621FE03B68DB680C333B621AE03B684E
:100BAC009B68002B02D104233B6213E03B689B68DB
:100BBC00012B05D108233B627B68FA691A6109E0B5
:100BCC0008233B627B68FA695A6103E000233B62AD
:100BDC0000E000BFBB69FF2B01D87B6801E07B689C
:100BEC0004337B61BB69FF2B02D87B6A9B0002E05C
:100BFC007B6A083B9B003B617B691A680F213B6950
:100C0C0001FA03F3DB431A40396A3B6901FA03F337
:100C1C001A437B691A603B685B6803F08053002BB6
:100C2C0000F09080564B9B69554A43F00103936149
:100C3C00534B9B6903F00103BB60BB68514A7B6A51
:100C4C009B08023352F82330FB607B6A03F00303EA
:100C5C009B000F2202FA03F3DB43FA681340FB609C
:100C6C007B68494A93420DD07B68484A934207D02F
:100C7C007B68474A934201D1022304E0032302E03C
:100C8C00012300E000237A6A02F0030292009340F1
:100C9C00FA681343FB603B497B6A9B080233FA6892
:100CAC0041F823203B685B6803F48033002B06D0AB
:100CBC00384B1A683749BB6913430B6006E0354B58
:100CCC001A68BB69DB43334913400B603B685B68B4
:100CDC0003F40033002B06D02E4B5A682D49BB6908
:100CEC0013434B6006E02B4B5A68BB69DB43294925
:100CFC0013404B603B685B6803F48013002B06D0F9
:100D0C00244B9A682349BB6913438B6006E0214B43
:100D1C009A68BB69DB431F4913408B603B685B6877
:100D2C0003F40013002B06D01A4BDA681949BB697F
:100D3C001343CB6006E0174BDA68BB69DB431549FC
:100D4C001340CB607B6A01337B623B681A687B6A19
:100D5C0022FA03F3002B7FF4AFAE00BF00BF2C3799
:100D6C00BD4680BC704700BF00003210000031103F
:100D7C0000002210000021100000121000001110C1
:100D8C00001002400000014000080140000C01402E
:100D9C00001001400004014080B483B000AF7860C3
:100DAC000B467B8013467B707B78002B03D07A88B4
:100DBC007B681A6103E07B881A047B681A6100BFA8
:100DCC000C37BD4680BC704780B485B000AF7860EE
:100DDC000B467B807B68DB68FB607A88FB68134082
:100DEC001A04FB68D9437B880B401A437B681A6151
:100DFC0000BF1437BD4680BC7047000080B586B07C
:100E0C0000AF78607B68002B01D101236CE27B681A
:100E1C001B6803F00103002B00F08780924B5B688A
:100E2C0003F00C03042B0CD08F4B5B6803F00C030A
:100E3C00082B12D18C4B5B6803F48033B3F5803FE5
:100E4C000BD1894B1B6803F40033002B6CD07B68EF
:100E5C005B68002B68D1012346E27B685B68B3F5C5
:100E6C00803F06D1804B1B687F4A43F4803313606C
:100E7C002EE07B685B68002B0CD17B4B1B687A4A9D
:100E8C0023F480331360784B1B68774A23F4802358
:100E9C0013601DE07B685B68B3F5A02F0CD1724B1F
:100EAC001B68714A43F4802313606F4B1B686E4AB6
:100EBC0043F4803313600BE06B4B1B686A4A23F4DA
:100ECC0080331360684B1B68674A23F480231360DC
:100EDC007B685B68002B13D0FFF7CCFC386108E013
:100EEC00FFF7C8FC02463B69D31A642B01D90323D4
:100EFC00FAE15D4B1B6803F40033002BF0D014E0D7
:100F0C00FFF7B8FC386108E0FFF7B4FC02463B6918
:100F1C00D31A642B01D90323E6E1534B1B6803F46A
:100F2C000033002BF0D100E000BF7B681B6803F09E
:100F3C000203002B63D04C4B5B6803F00C03002BBB
:100F4C000BD0494B5B6803F00C03082B1CD1464BB0
:100F5C005B6803F48033002B16D1434B1B6803F002
:100F6C000203002B05D07B681B69012B01D00123E8
:100F7C00BAE13D4B1B6823F0F8027B685B69DB0030
:100F8C00394913430B603AE07B681B69002B20D076
:100F9C00364B01221A60FFF76DFC386108E0FFF751
:100FAC0069FC02463B69D31A022B01D903239BE14E
:100FBC002D4B1B6803F00203002BF0D02A4B1B684F
:100FCC0023F0F8027B685B69DB00274913430B6055
:100FDC0015E0264B00221A60FFF74CFC386108E044
:100FEC00FFF748FC02463B69D31A022B01D90323B5
:100FFC007AE11D4B1B6803F00203002BF0D17B68D8
:10100C001B6803F00803002B3AD07B689B69002B0C
:10101C0019D0174B01221A60FFF72CFC386108E03D
:10102C00FFF728FC02463B69D31A022B01D9032394
:10103C005AE10D4B5B6A03F00203002BF0D0012048
:10104C0000F0A6FA1CE00A4B00221A60FFF712FC13
:10105C0038610FE0FFF70EFC02463B69D31A022BF6
:10106C0008D9032340E100BF0010024000004242B7
:10107C00800442429E4B5B6A03F00203002BE9D1D1
:10108C007B681B6803F00403002B00F0A680002390
:10109C00FB75974BDB6903F08053002B0DD1944B00
:1010AC00DB69934A43F08053D361914BDB6903F0C6
:1010BC008053BB60BB680123FB758E4B1B6803F42C
:1010CC008073002B18D18B4B1B688A4A43F48073B6
:1010DC001360FFF7CFFB386108E0FFF7CBFB02464C
:1010EC003B69D31A642B01D90323FDE0814B1B68A8
:1010FC0003F48073002BF0D07B68DB68012B06D1E6
:10110C007B4B1B6A7A4A43F0010313622DE07B6828
:10111C00DB68002B0CD1764B1B6A754A23F001035C
:10112C001362734B1B6A724A23F0040313621CE0B4
:10113C007B68DB68052B0CD16D4B1B6A6C4A43F04A
:10114C00040313626A4B1B6A694A43F0010313627E
:10115C000BE0674B1B6A664A23F001031362644B76
:10116C001B6A634A23F0040313627B68DB68002B61
:10117C0015D0FFF77FFB38610AE0FFF77BFB0246D7
:10118C003B69D31A41F28832934201D90323ABE075
:10119C00574B1B6A03F00203002BEED014E0FFF751
:1011AC0069FB38610AE0FFF765FB02463B69D31A1D
:1011BC0041F28832934201D9032395E04C4B1B6AD0
:1011CC0003F00203002BEED1FB7D012B05D1484B24
:1011DC00DB69474A23F08053D3617B68DB69002BC2
:1011EC0000F08180424B5B6803F00C03082B61D04C
:1011FC007B68DB69022B46D13F4B00221A60FFF75C
:10120C0039FB386108E0FFF735FB02463B69D31A1E
:10121C00022B01D9032367E0354B1B6803F00073E5
:10122C00002BF0D17B681B6AB3F5803F08D1304BA3
:10123C005B6823F400327B689B682D4913434B6039
:10124C002B4B5B6823F474127B68196A7B685B6AAE
:10125C000B43274913434B60274B01221A60FFF7BE
:10126C0009FB386108E0FFF705FB02463B69D31A1E
:10127C00022B01D9032337E01D4B1B6803F00073CD
:10128C00002BF0D02FE01C4B00221A60FFF7F2FA73
:10129C00386108E0FFF7EEFA02463B69D31A022BDD
:1012AC0001D9032320E0124B1B6803F00073002BC1
:1012BC00F0D118E07B68DB69012B01D1012313E02D
:1012CC000B4B5B68FB60FB6803F480327B681B6A2A
:1012DC009A4206D1FB6803F470127B685B6A9A42EF
:1012EC0001D0012300E0002318461837BD4680BD0D
:1012FC0000100240007000406000424280B584B093
:10130C0000AF786039607B68002B01D10123D0E0FD
:10131C006A4B1B6803F007033A689A4210D9674B73
:10132C001B6823F0070265493B6813430B60634B52
:10133C001B6803F007033A689A4201D00123B8E016
:10134C007B681B6803F00203002B20D07B681B68B2
:10135C0003F00403002B05D0594B5B68584A43F447
:10136C00E06353607B681B6803F00803002B05D017
:10137C00534B5B68524A43F460535360504B5B6869
:10138C0023F0F0027B689B684D4913434B607B68EC
:10139C001B6803F00103002B40D07B685B68012BBA
:1013AC0007D1474B1B6803F40033002B15D10123E5
:1013BC007FE07B685B68022B07D1414B1B6803F015
:1013CC000073002B09D1012373E03D4B1B6803F024
:1013DC000203002B01D101236BE0394B5B6823F036
:1013EC0003027B685B68364913434B60FFF742FA94
:1013FC00F8600AE0FFF73EFA0246FB68D31A41F2A6
:10140C008832934201D9032353E02D4B5B6803F0E0
:10141C000C027B685B689B009A42EBD1274B1B68E4
:10142C0003F007033A689A4210D2244B1B6823F04E
:10143C00070222493B6813430B60204B1B6803F0E7
:10144C0007033A689A4201D0012332E07B681B689B
:10145C0003F00403002B08D0194B5B6823F4E06203
:10146C007B68DB68164913434B607B681B6803F091
:10147C000803002B09D0124B5B6823F460527B6885
:10148C001B69DB000E4913434B6000F021F8024648
:10149C000B4B5B681B0903F00F030A49CB5C22FA68
:1014AC0003F3094A1360094B1B681846FFF7A0F9B0
:1014BC00002318461037BD4680BD00BF00200240F7
:1014CC0000100240301E00082800002030000020D0
:1014DC0090B48AB000AF2A4B3C1D0FCB84E80F00B0
:1014EC0040F201233B800023FB610023BB610023FE
:1014FC007B6200237B6100233B62224B5B68FB61B8
:10150C00FB6903F00C03042B02D0082B03D02DE055
:10151C001D4B3B622DE0FB699B0C03F00F0307F1A5
:10152C002802134413F8243C7B61FB6903F48033D9
:10153C00002B13D0134B5B685B0C03F0010307F11A
:10154C002802134413F8283CBB617B690E4A02FB4A
:10155C0003F2BB69B2FBF3F37B6204E07B690B4AD9
:10156C0002FB03F37B627B6A3B6202E0064B3B624D
:10157C0000BF3B6A18462837BD4690BC704700BF79
:10158C00201E00080010024000127A0000093D00E5
:10159C0080B485B000AF78600A4B1B680A4AA2FB86
:1015AC0003235B0A7A6802FB03F3FB6000BFFB6852
:1015BC005A1EFA60002BF9D100BF00BF1437BD468C
:1015CC0080BC704728000020D34D621080B582B0DB
:1015DC0000AF78607B68002B01D1012341E07B6870
:1015EC0093F83D30DBB2002B06D17B68002283F8E8
:1015FC003C207868FFF72CF87B68022283F83D20AA
:10160C007B681A687B6804331946104600F06AFA46
:10161C007B68012283F846207B68012283F83E20F8
:10162C007B68012283F83F207B68012283F84020ED
:10163C007B68012283F841207B68012283F84220D9
:10164C007B68012283F843207B68012283F84420C5
:10165C007B68012283F845207B68012283F83D20BA
:10166C00002318460837BD4680BD000080B485B005
:10167C0000AF78607B6893F83D30DBB2012B01D072
:10168C00012335E07B68022283F83D207B681B68D0
:10169C00DA687B681B6842F00102DA607B681B68C1
:1016AC00164A934209D07B681B68B3F1804F04D073
:1016BC007B681B68124A934211D17B681B689B683C
:1016CC0003F00703FB60FB68062B10D07B681B68DC
:1016DC001A687B681B6842F001021A6007E07B689D
:1016EC001B681A687B681B6842F001021A600023B1
:1016FC0018461437BD4680BC704700BF002C014013
:10170C000004004080B582B000AF78607B681B6835
:10171C001B6903F00203022B22D17B681B68DB6878
:10172C0003F00203022B1BD17B681B686FF00202D3
:10173C001A617B6801221A777B681B689B6903F02E
:10174C000303002B03D0786800F0B1F905E078684A
:10175C0000F0A4F9786800F0B3F97B6800221A77DE
:10176C007B681B681B6903F00403042B22D17B6884
:10177C001B68DB6803F00403042B1BD17B681B681C
:10178C006FF004021A617B6802221A777B681B686F
:10179C009B6903F44073002B03D0786800F087F941
:1017AC0005E0786800F07AF9786800F089F97B68D0
:1017BC0000221A777B681B681B6903F00803082B4F
:1017CC0022D17B681B68DB6803F00803082B1BD154
:1017DC007B681B686FF008021A617B6804221A7719
:1017EC007B681B68DB6903F00303002B03D078686C
:1017FC0000F05DF905E0786800F050F9786800F0C9
:10180C005FF97B6800221A777B681B681B6903F001
:10181C001003102B22D17B681B68DB6803F01003CC
:10182C00102B1BD17B681B686FF010021A617B6850
:10183C0008221A777B681B68DB6903F44073002B62
:10184C0003D0786800F033F905E0786800F026F9E9
:10185C00786800F035F97B6800221A777B681B6882
:10186C001B6903F00103012B0ED17B681B68DB683D
:10187C0003F00103012B07D17B681B686FF0010299
:10188C001A617868FEF7A2FE7B681B681B6903F07F
:10189C008003802B0ED17B681B68DB6803F0800310
:1018AC00802B07D17B681B686FF080021A61786807
:1018BC0000F067FA7B681B681B6903F04003402B40
:1018CC000ED17B681B68DB6803F04003402B07D10B
:1018DC007B681B686FF040021A61786800F0F9F8B9
:1018EC007B681B681B6903F02003202B0ED17B68DF
:1018FC001B68DB6803F02003202B07D17B681B6877
:10190C006FF020021A61786800F032FA00BF0837D5
:10191C00BD4680BD80B584B000AF786039607B680F
:10192C0093F83C30012B01D10223B3E07B680122F8
:10193C0083F83C207B68022283F83D207B681B687F
:10194C009B68FB60FB6823F07703FB60FB6823F468
:10195C007F43FB607B681B68FA689A603B681B6876
:10196C00B3F5005F3ED0B3F5005F00F28780B3F5AE
:10197C00805F00F08580B3F5805F7FD8702B1AD024
:10198C00702B7BD8602B50D0602B77D8502B3CD051
:10199C00502B73D8402B58D0402B6FD8302B64D0A1
:1019AC00302B6BD8202B60D0202B67D8002B5CD031
:1019BC00102B5AD062E07B6818683B6899683B68CA
:1019CC005A683B68DB6800F05CF97B681B689B68B5
:1019DC00FB60FB6843F07703FB607B681B68FA686D
:1019EC009A604EE07B6818683B6899683B685A6857
:1019FC003B68DB6800F045F97B681B689A687B687C
:101A0C001B6842F480429A603BE07B6818683B6834
:101A1C0059683B68DB681A4600F0BCF87B681B68A9
:101A2C005021184600F013F92BE07B6818683B68CE
:101A3C0059683B68DB681A4600F0DAF87B681B686B
:101A4C006021184600F003F91BE07B6818683B68BE
:101A5C0059683B68DB681A4600F09CF87B681B6889
:101A6C004021184600F0F3F80BE07B681A683B68DD
:101A7C001B681946104600F0EAF802E000BF00E0CF
:101A8C0000BF7B68012283F83D207B68002283F82D
:101A9C003C20002318461037BD4680BD80B483B06F
:101AAC0000AF786000BF0C37BD4680BC704780B477
:101ABC0083B000AF786000BF0C37BD4680BC704768
:101ACC0080B483B000AF786000BF0C37BD4680BCDB
:101ADC00704780B483B000AF786000BF0C37BD4650
:101AEC0080BC704780B485B000AF786039607B688B
:101AFC001B68FB607B68254A934207D07B68B3F177
:101B0C00804F03D07B68224A934208D1FB6823F0B4
:101B1C007003FB603B685B68FA681343FB607B688F
:101B2C001A4A934207D07B68B3F1804F03D07B688D
:101B3C00174A934208D1FB6823F44073FB603B685F
:101B4C00DB68FA681343FB60FB6823F080023B6898
:101B5C005B691343FB607B68FA681A603B689A68A0
:101B6C007B68DA623B681A687B689A627B68074A12
:101B7C00934203D13B681A697B681A637B68012224
:101B8C005A6100BF1437BD4680BC7047002C014021
:101B9C000004004080B487B000AFF860B9607A6090
:101BAC00FB681B6A7B61FB681B6A23F00102FB6804
:101BBC001A62FB689B693B613B6923F0F0033B6154
:101BCC007B681B013A6913433B617B6923F00A0371
:101BDC007B617A69BB6813437B61FB683A699A61E4
:101BEC00FB687A691A6200BF1C37BD4680BC70471F
:101BFC0080B487B000AFF860B9607A60FB681B6A8C
:101C0C0023F01002FB681A62FB689B697B61FB681E
:101C1C001B6A3B617B6923F470437B617B681B030C
:101C2C007A6913437B613B6923F0A0033B61BB687A
:101C3C001B013A6913433B61FB687A699A61FB6843
:101C4C003A691A6200BF1C37BD4680BC704780B42D
:101C5C0085B000AF786039607B689B68FB60FB687F
:101C6C0023F07003FB603A68FB68134343F00703EF
:101C7C00FB607B68FA689A6000BF1437BD4680BC75
:101C8C00704780B487B000AFF860B9607A603B6091
:101C9C00FB689B687B617B6923F47F437B613B68BA
:101CAC001A027B681A43BB6813437A6913437B613E
:101CBC00FB687A699A6000BF1C37BD4680BC7047D0
:101CCC0080B485B000AF786039607B6893F83C30A5
:101CDC00012B01D1022341E07B68012283F83C20D7
:101CEC007B68022283F83D207B681B685B68FB6085
:101CFC007B681B689B68BB60FB6823F07003FB6010
:101D0C003B681B68FA681343FB607B681B68FA68C6
:101D1C005A607B681B68144A934209D07B681B6825
:101D2C00B3F1804F04D07B681B68104A93420CD1EE
:101D3C00BB6823F08003BB603B685B68BA681343E5
:101D4C00BB607B681B68BA689A607B68012283F869
:101D5C003D207B68002283F83C2000231846143772
:101D6C00BD4680BC704700BF002C01400004004001
:101D7C0080B483B000AF786000BF0C37BD4680BC28
:101D8C00704780B483B000AF786000BF0C37BD469D
:101D9C0080BC704770B500260C4D0D4C641BA41014
:101DAC00A64209D100F022F800260A4D0A4C641B09
:101DBC00A410A64205D170BD55F8043B98470136D6
:101DCC00EEE755F8043B98470136F2E7401E000851
:101DDC00401E0008401E0008441E00080346024432
:101DEC00934200D1704703F8011BF9E7F8B500BF27
:101DFC00F8BC08BC9E467047F8B500BFF8BC08BCE0
:041E0C009E46704737
:101E100001000000020000000300000000000000BC
:101E200002030405060708090A0B0C0D0E0F10101B
:101E3000000000000000000001020304060708097A
:041E40003101000864
:041E44000D01000884
:101E4800C0000000F9000000A4000000B00000007D
:101E5800990000009200000082000000F8000000D5
:101E680080000000900000000024F4001900000029
:081E7800100000000100000051
:040000050800078563
:00000001FF
